:100000000C944A010C947B010C947B010C947B01B1
:100010000C947B010C947B010C947B010C947B0170
:100020000C947B010C947B010C947B010C947B0160
:100030000C947B010C947B010C947B010C947B0150
:100040000C947B010C947B010C947B010C947B0140
:100050000C947B010C947B010C947B010C946A033F
:100060000C947B010C94DE030C94B4030C947B0180
:100070000C947B010C947B010C947B010C947B0110
:100080000C947B010C947B010C947B010C947B0100
:100090000C947B010C947B010C947B010C947B01F0
:1000A0000C947B010C947B010C947B010C947B01E0
:1000B0000C947B010C947B010C947B010C947B01D0
:1000C0000C947B010C947B010C947B010C947B01C0
:1000D0000C947B010C947B010C947B010C947B01B0
:1000E0000C947B010C9436020C94C0010C94F10129
:1000F0000C94AE010C94ED010C9428060C94A9010B
:100100000C94C4010C94CF010C9439060C94C801D2
:100110000C94D5010C9404060C94BB050C94E701D7
:100120000C94C3050C94CC020C941C060C94E705AB
:100130000C9486020C9419030C94FB010C94100689
:100140000C94E3010C94CF050C949B050C94CC010A
:100150000C9485050C94FF010C948A050C94D9012C
:100160000C94F8050C9472020C94DF010C94B30506
:100170000C948F050C94A7050C9494020C943406EF
:100180000C94F5010C94DB050C9463020000210033
:10019000240027002A002D00300033000101000058
:1001A000040107010A0100002200250028002B009D
:1001B0002E003100340002010000050108010B018E
:1001C00005050505070508080808020202020A0AD3
:1001D00008080404040401010101010101010303F1
:1001E000030303030303040707070C0C0C0C0C0C9C
:1001F0000C0C0202020206060606060606060B0B99
:100200000B0B0B0B0B0B01021020200808102040D9
:1002100010204080020102010804020101020408CA
:100220001020408080402010080402018004020158
:1002300080402010080402010804020101020408A1
:1002400010204080010204081020408000000A0BAA
:1002500002090C0D0E080703040100000000000055
:10026000000000000000000000000000000000008E
:10027000000000000000000012111000000000004B
:10028000000000000000000000000000000000006E
:100290000000390611241FBECFEFD1E2DEBFCDBF73
:1002A00000E00CBF12E0A0E0B2E0EEE8FDE000E00C
:1002B0000BBF02C007900D92A631B107D9F722E01B
:1002C000A6E1B2E001C01D92AE3BB207E1F711E03A
:1002D000CAE4D1E000E006C021970109802FFE01A9
:1002E0000E94B606C934D10780E00807A9F70E942A
:1002F00014040C94C5060C940000382FE3E8F2E0D7
:100300008491EDE3F2E02491E7EFF1E094919923F9
:1003100009F435C0882311F181508231F8F4E82FB7
:10032000F0E08827E956FE4F8F4F0C94B606C801BF
:10033000CC01A901C001C401AE01CF01D501D90191
:10034000DF01E301E701ED01F101AE01F501FB0180
:10035000FF01809180008F7780938000E92FF0E08B
:10036000EE0FFF1FEA55FE4FA591B4918FB7F89499
:10037000EC91311148C020952E232C938FBF089506
:10038000809180008F7DE8CF80918000877FE4CFCF
:1003900084B58F7784BDE2CF84B58F7DFBCF80910C
:1003A000B0008F778093B000D9CF8091B0008F7D5F
:1003B000F9CF809190008F7780939000CFCF80917C
:1003C00090008F7DF9CF80919000877FF5CF80914D
:1003D000A0008F778093A000C1CF8091A0008F7D77
:1003E000F9CF8091A000877FF5CF809120018F7792
:1003F00080932001B3CF809120018F7DF9CF809130
:100400002001877FF5CF2E2BB8CFCF93DF9390E0DD
:10041000FC01EA5FFD4F249180549E4FFC018491C2
:100420008823D1F090E0880F991FFC01E457FE4F1C
:10043000A591B491FC01EA55FE4FC591D49161118B
:100440000EC09FB7F8948C91E22FE0958E238C9389
:100450002881E223E8839FBFDF91CF9108958FB772
:10046000F894EC91E22BEC938FBFF6CFAF92BF9252
:10047000CF92DF92EF92FF920F931F93CF93DF9370
:100480006C017B018B01040F151FEB015E01AE189F
:10049000BF08C017D10759F06991D601ED91FC91C1
:1004A0000190F081E02DC6011995892B79F7C501DE
:1004B000DF91CF911F910F91FF90EF90DF90CF9040
:1004C000BF90AF900895FC01538D448D252F30E0EF
:1004D000842F90E0821B930B541710F0CF96089551
:1004E00001970895FC01918D828D981761F0A28D7E
:1004F000AE0FBF2FB11D5D968C91928D9F5F9F7344
:10050000928F90E008958FEF9FEF0895FC01918DF9
:10051000828D981731F0828DE80FF11D858D90E066
:1005200008958FEF9FEF0895FC01918D228D892F03
:1005300090E0805C9F4F821B91098F7399270895EB
:1005400086E192E00E94940221E0892B09F420E0E8
:10055000822F0895FC01A48DA80FB92FB11DA35AB5
:10056000BF4F2C91848D90E001968F739927848FD3
:10057000A689B7892C93A089B1898C9183708064F6
:100580008C93938D848D981306C00288F389E02D97
:1005900080818F7D80830895EF92FF920F931F9348
:1005A000CF93DF93EC0181E0888F9B8D8C8D981326
:1005B0001AC0E889F989808185FF15C09FB7F89432
:1005C000EE89FF896083E889F9898081837080647E
:1005D00080839FBF81E090E0DF91CF911F910F91C9
:1005E000FF90EF900895F62E0B8D10E00F5F1F4FD8
:1005F0000F731127E02E8C8D8E110CC00FB607FCE7
:10060000FACFE889F989808185FFF5CFCE010E9474
:10061000AA02F1CFEB8DEC0FFD2FF11DE35AFF4F36
:10062000F0829FB7F8940B8FEA89FB898081806202
:10063000CFCFCF93DF93EC01888D8823B9F0AA89BF
:10064000BB89E889F9898C9185FD03C0808186FD8D
:100650000DC00FB607FCF7CF8C9185FFF2CF8081DC
:1006600085FFEDCFCE010E94AA02E9CFDF91CF91A5
:10067000089580E090E0892B29F00E94A00281116A
:100680000E94000080E090E0892B49F080E090E03B
:10069000892B29F00E94000081110E94000080E057
:1006A00090E0892B49F080E090E0892B29F00E94AE
:1006B000000081110E94000080E090E0892B49F049
:1006C00080E090E0892B29F00E94000081110C94B9
:1006D000000008951F920F920FB60F9211242F93CE
:1006E0003F938F939F93AF93BF938091BA02909162
:1006F000BB02A091BC02B091BD023091B90223E0CF
:10070000230F2D3758F50196A11DB11D2093B90275
:100710008093BA029093BB02A093BC02B093BD0237
:100720008091B5029091B602A091B702B091B80243
:100730000196A11DB11D8093B5029093B602A093BE
:10074000B702B093B802BF91AF919F918F913F9143
:100750002F910F900FBE0F901F90189526E8230F32
:100760000296A11DB11DD2CF1F920F920FB60F920C
:1007700011240BB60F922F933F934F935F936F9378
:100780007F938F939F93AF93BF93EF93FF9386E1F4
:1007900092E00E94AA02FF91EF91BF91AF919F91C9
:1007A0008F917F916F915F914F913F912F910F901A
:1007B0000BBE0F900FBE0F901F9018951F920F92B7
:1007C0000FB60F9211240BB60F922F938F939F9316
:1007D000EF93FF93E0912602F09127028081E09150
:1007E0002C02F0912D0282FD1DC0908180912F027C
:1007F0008F5F8F7320913002821741F0E0912F02BA
:10080000F0E0EA5EFD4F958F80932F02FF91EF910C
:100810009F918F912F910F900BBE0F900FBE0F9055
:100820001F9018958081F2CFCF93DF93CDB7DEB7BD
:10083000A1970FB6F894DEBF0FBECDBF789484B5F4
:10084000826084BD84B5816084BD85B5826085BDCC
:1008500085B5816085BD80916E00816080936E005A
:10086000109281008091810082608093810080914C
:1008700081008160809381008091800081608093FD
:1008800080008091B10084608093B1008091B000BD
:1008900081608093B000809191008260809391008C
:1008A000809191008160809391008091900081609F
:1008B000809390008091A10082608093A10080913C
:1008C000A10081608093A1008091A000816080934D
:1008D000A0008091210182608093210180912101FB
:1008E00081608093210180912001816080932001AB
:1008F00080917A00846080937A0080917A0082608F
:1009000080937A0080917A00816080937A00809150
:100910007A00806880937A001092C10061E087E3DA
:100920000E94050260E086E30E940502E091260233
:10093000F091270282E08083E0912202F09123026D
:100940001082E0912402F09125028FEC80831092B6
:100950002E02E0912A02F0912B0286E08083E09142
:100960002802F0912902808180618083E091280231
:10097000F0912902808188608083E0912802F091C3
:100980002902808180688083E0912802F091290209
:1009900080818F7D808380E4282E9AE0C92ED12C1F
:1009A000E12CF12C88248A9423E0922EA12CB12CE6
:1009B00080917B00877F80937B0020927C008091D8
:1009C0007A00806480937A0080917A0086FDFCCF63
:1009D00040907800509079005092B4024092B30257
:1009E000052C000C6608770877FE53C06DE286E19F
:1009F00092E00E94CC0222273327A901241935094D
:100A00004609570919A28E010F5D1F4FCA01B9018E
:100A1000A70196010E948506605DF80162938F012F
:100A2000211531054105510589F70115110561F0C1
:100A300001900020E9F73197AF01401B510BB8013D
:100A400086E192E00E94360242E050E062E172E00C
:100A500086E192E00E943602A091B302B091B40206
:100A60002FEF30E00E94BE06A50194010E946606A9
:100A7000422E332E022F132F61E087E30E940502DE
:100A800001151105E1F480E00E947D010E94390307
:100A90008FCFA301920119A28E010F5D1F4FCA01D2
:100AA000B901A70196010E948506605DF801629375
:100AB0008F01211531054105510589F7B6CF0F3F4B
:100AC000110511F481E0E0CFE3E8F2E08491EFEF6B
:100AD000E80FE23108F0C8C0F0E08827ED58FA4F7F
:100AE0008F4F0C94B60685058A058F059B05A705D3
:100AF0003406B305BB05C305CF05DB05E705F805DF
:100B00000406340610061C06280684B5806884BDD9
:100B100047BCBCCF84B5806284BD48BCB7CF809150
:100B20008000806880938000842D932D90938900AD
:100B300080938800ABCF809180008062809380009A
:100B4000842D932D90938B0080938A009FCF80916A
:100B50008000886080938000842D932D90938D0079
:100B600080938C0093CF8091B00080688093B00018
:100B70004092B3008BCF8091B00080628093B00030
:100B80004092B40083CF8091900080688093900061
:100B9000842D932D909399008093980077CF809126
:100BA0009000806280939000842D932D90939B0001
:100BB00080939A006BCF8091900088608093900022
:100BC000842D932D90939D0080939C005FCF809106
:100BD000A00080688093A0008091A0008F7B80930C
:100BE000A000842D932D9093A9008093A8004ECF50
:100BF0008091A00080628093A000842D932D90931B
:100C0000AB008093AA0042CF8091A00088608093BF
:100C1000A000842D932D9093AD008093AC0036CF2F
:100C200080912001806880932001842D932D9093E2
:100C30002901809328012ACF80912001806280932E
:100C40002001842D932D90932B0180932A011ECF98
:100C500080912001886080932001842D932D9093B2
:100C60002D0180932C0112CF003811050CF02ACFF2
:100C70000ACFE6E1F2E01382128288EE93E0A0E070
:100C8000B0E084839583A683B78384E092E0918368
:100C9000808385EC90E09587848784EC90E097874B
:100CA000868780EC90E0918B808B81EC90E0938B39
:100CB000828B82EC90E0958B848B86EC90E0978B16
:100CC000868B118E128E138E148E0895052E97FB2F
:100CD0001EF400940E947D0657FD07D00E948506F1
:100CE00007FC03D04EF40C947D065095409530954A
:100CF00021953F4F4F4F5F4F089590958095709588
:100D000061957F4F8F4F9F4F0895A1E21A2EAA1B26
:100D1000BB1BFD010DC0AA1FBB1FEE1FFF1FA217AB
:100D2000B307E407F50720F0A21BB30BE40BF50BA8
:100D3000661F771F881F991F1A9469F76095709531
:100D4000809590959B01AC01BD01CF010895A29FB4
:100D5000B001B39FC001A39F700D811D1124911D8F
:100D6000B29F700D811D1124911D0895EE0FFF1F7C
:100D7000881F8BBF0790F691E02D19940E94A7065B
:0E0D8000B7FF0895821B930B0895F894FFCFE0
:100D8E0000000000CC0236026302190394027202C4
:060D9E0086020D0A0000B0
:00000001FF
